{
  "address": "0xE7d37E477D18f7d8ea55b23C4F705bcD9bbe1A9e",
  "abi": [
    {
      "inputs": [],
      "stateMutability": "nonpayable",
      "type": "constructor"
    },
    {
      "inputs": [],
      "name": "AccessControlBadConfirmation",
      "type": "error"
    },
    {
      "inputs": [
        {
          "internalType": "address",
          "name": "account",
          "type": "address"
        },
        {
          "internalType": "bytes32",
          "name": "neededRole",
          "type": "bytes32"
        }
      ],
      "name": "AccessControlUnauthorizedAccount",
      "type": "error"
    },
    {
      "inputs": [
        {
          "internalType": "address",
          "name": "sender",
          "type": "address"
        },
        {
          "internalType": "uint256",
          "name": "tokenId",
          "type": "uint256"
        },
        {
          "internalType": "address",
          "name": "owner",
          "type": "address"
        }
      ],
      "name": "ERC721IncorrectOwner",
      "type": "error"
    },
    {
      "inputs": [
        {
          "internalType": "address",
          "name": "operator",
          "type": "address"
        },
        {
          "internalType": "uint256",
          "name": "tokenId",
          "type": "uint256"
        }
      ],
      "name": "ERC721InsufficientApproval",
      "type": "error"
    },
    {
      "inputs": [
        {
          "internalType": "address",
          "name": "approver",
          "type": "address"
        }
      ],
      "name": "ERC721InvalidApprover",
      "type": "error"
    },
    {
      "inputs": [
        {
          "internalType": "address",
          "name": "operator",
          "type": "address"
        }
      ],
      "name": "ERC721InvalidOperator",
      "type": "error"
    },
    {
      "inputs": [
        {
          "internalType": "address",
          "name": "owner",
          "type": "address"
        }
      ],
      "name": "ERC721InvalidOwner",
      "type": "error"
    },
    {
      "inputs": [
        {
          "internalType": "address",
          "name": "receiver",
          "type": "address"
        }
      ],
      "name": "ERC721InvalidReceiver",
      "type": "error"
    },
    {
      "inputs": [
        {
          "internalType": "address",
          "name": "sender",
          "type": "address"
        }
      ],
      "name": "ERC721InvalidSender",
      "type": "error"
    },
    {
      "inputs": [
        {
          "internalType": "uint256",
          "name": "tokenId",
          "type": "uint256"
        }
      ],
      "name": "ERC721NonexistentToken",
      "type": "error"
    },
    {
      "anonymous": false,
      "inputs": [
        {
          "indexed": true,
          "internalType": "address",
          "name": "owner",
          "type": "address"
        },
        {
          "indexed": true,
          "internalType": "address",
          "name": "approved",
          "type": "address"
        },
        {
          "indexed": true,
          "internalType": "uint256",
          "name": "tokenId",
          "type": "uint256"
        }
      ],
      "name": "Approval",
      "type": "event"
    },
    {
      "anonymous": false,
      "inputs": [
        {
          "indexed": true,
          "internalType": "address",
          "name": "owner",
          "type": "address"
        },
        {
          "indexed": true,
          "internalType": "address",
          "name": "operator",
          "type": "address"
        },
        {
          "indexed": false,
          "internalType": "bool",
          "name": "approved",
          "type": "bool"
        }
      ],
      "name": "ApprovalForAll",
      "type": "event"
    },
    {
      "anonymous": false,
      "inputs": [
        {
          "indexed": true,
          "internalType": "bytes32",
          "name": "role",
          "type": "bytes32"
        },
        {
          "indexed": true,
          "internalType": "bytes32",
          "name": "previousAdminRole",
          "type": "bytes32"
        },
        {
          "indexed": true,
          "internalType": "bytes32",
          "name": "newAdminRole",
          "type": "bytes32"
        }
      ],
      "name": "RoleAdminChanged",
      "type": "event"
    },
    {
      "anonymous": false,
      "inputs": [
        {
          "indexed": true,
          "internalType": "bytes32",
          "name": "role",
          "type": "bytes32"
        },
        {
          "indexed": true,
          "internalType": "address",
          "name": "account",
          "type": "address"
        },
        {
          "indexed": true,
          "internalType": "address",
          "name": "sender",
          "type": "address"
        }
      ],
      "name": "RoleGranted",
      "type": "event"
    },
    {
      "anonymous": false,
      "inputs": [
        {
          "indexed": true,
          "internalType": "bytes32",
          "name": "role",
          "type": "bytes32"
        },
        {
          "indexed": true,
          "internalType": "address",
          "name": "account",
          "type": "address"
        },
        {
          "indexed": true,
          "internalType": "address",
          "name": "sender",
          "type": "address"
        }
      ],
      "name": "RoleRevoked",
      "type": "event"
    },
    {
      "anonymous": false,
      "inputs": [
        {
          "indexed": true,
          "internalType": "address",
          "name": "from",
          "type": "address"
        },
        {
          "indexed": true,
          "internalType": "address",
          "name": "to",
          "type": "address"
        },
        {
          "indexed": true,
          "internalType": "uint256",
          "name": "tokenId",
          "type": "uint256"
        }
      ],
      "name": "Transfer",
      "type": "event"
    },
    {
      "inputs": [],
      "name": "DEFAULT_ADMIN_ROLE",
      "outputs": [
        {
          "internalType": "bytes32",
          "name": "",
          "type": "bytes32"
        }
      ],
      "stateMutability": "view",
      "type": "function"
    },
    {
      "inputs": [],
      "name": "MINTER_ROLE",
      "outputs": [
        {
          "internalType": "bytes32",
          "name": "",
          "type": "bytes32"
        }
      ],
      "stateMutability": "view",
      "type": "function"
    },
    {
      "inputs": [
        {
          "internalType": "address",
          "name": "to",
          "type": "address"
        },
        {
          "internalType": "uint256",
          "name": "tokenId",
          "type": "uint256"
        }
      ],
      "name": "approve",
      "outputs": [],
      "stateMutability": "nonpayable",
      "type": "function"
    },
    {
      "inputs": [
        {
          "internalType": "address",
          "name": "owner",
          "type": "address"
        }
      ],
      "name": "balanceOf",
      "outputs": [
        {
          "internalType": "uint256",
          "name": "",
          "type": "uint256"
        }
      ],
      "stateMutability": "view",
      "type": "function"
    },
    {
      "inputs": [
        {
          "internalType": "uint256",
          "name": "tokenId",
          "type": "uint256"
        }
      ],
      "name": "getApproved",
      "outputs": [
        {
          "internalType": "address",
          "name": "",
          "type": "address"
        }
      ],
      "stateMutability": "view",
      "type": "function"
    },
    {
      "inputs": [
        {
          "internalType": "bytes32",
          "name": "role",
          "type": "bytes32"
        }
      ],
      "name": "getRoleAdmin",
      "outputs": [
        {
          "internalType": "bytes32",
          "name": "",
          "type": "bytes32"
        }
      ],
      "stateMutability": "view",
      "type": "function"
    },
    {
      "inputs": [
        {
          "internalType": "bytes32",
          "name": "role",
          "type": "bytes32"
        },
        {
          "internalType": "address",
          "name": "account",
          "type": "address"
        }
      ],
      "name": "grantRole",
      "outputs": [],
      "stateMutability": "nonpayable",
      "type": "function"
    },
    {
      "inputs": [
        {
          "internalType": "bytes32",
          "name": "role",
          "type": "bytes32"
        },
        {
          "internalType": "address",
          "name": "account",
          "type": "address"
        }
      ],
      "name": "hasRole",
      "outputs": [
        {
          "internalType": "bool",
          "name": "",
          "type": "bool"
        }
      ],
      "stateMutability": "view",
      "type": "function"
    },
    {
      "inputs": [
        {
          "internalType": "address",
          "name": "owner",
          "type": "address"
        },
        {
          "internalType": "address",
          "name": "operator",
          "type": "address"
        }
      ],
      "name": "isApprovedForAll",
      "outputs": [
        {
          "internalType": "bool",
          "name": "",
          "type": "bool"
        }
      ],
      "stateMutability": "view",
      "type": "function"
    },
    {
      "inputs": [
        {
          "internalType": "address",
          "name": "to",
          "type": "address"
        }
      ],
      "name": "mintTo",
      "outputs": [
        {
          "internalType": "uint256",
          "name": "tokenId",
          "type": "uint256"
        }
      ],
      "stateMutability": "nonpayable",
      "type": "function"
    },
    {
      "inputs": [],
      "name": "name",
      "outputs": [
        {
          "internalType": "string",
          "name": "",
          "type": "string"
        }
      ],
      "stateMutability": "view",
      "type": "function"
    },
    {
      "inputs": [
        {
          "internalType": "uint256",
          "name": "tokenId",
          "type": "uint256"
        }
      ],
      "name": "ownerOf",
      "outputs": [
        {
          "internalType": "address",
          "name": "",
          "type": "address"
        }
      ],
      "stateMutability": "view",
      "type": "function"
    },
    {
      "inputs": [
        {
          "internalType": "bytes32",
          "name": "role",
          "type": "bytes32"
        },
        {
          "internalType": "address",
          "name": "callerConfirmation",
          "type": "address"
        }
      ],
      "name": "renounceRole",
      "outputs": [],
      "stateMutability": "nonpayable",
      "type": "function"
    },
    {
      "inputs": [
        {
          "internalType": "bytes32",
          "name": "role",
          "type": "bytes32"
        },
        {
          "internalType": "address",
          "name": "account",
          "type": "address"
        }
      ],
      "name": "revokeRole",
      "outputs": [],
      "stateMutability": "nonpayable",
      "type": "function"
    },
    {
      "inputs": [
        {
          "internalType": "address",
          "name": "from",
          "type": "address"
        },
        {
          "internalType": "address",
          "name": "to",
          "type": "address"
        },
        {
          "internalType": "uint256",
          "name": "tokenId",
          "type": "uint256"
        }
      ],
      "name": "safeTransferFrom",
      "outputs": [],
      "stateMutability": "nonpayable",
      "type": "function"
    },
    {
      "inputs": [
        {
          "internalType": "address",
          "name": "from",
          "type": "address"
        },
        {
          "internalType": "address",
          "name": "to",
          "type": "address"
        },
        {
          "internalType": "uint256",
          "name": "tokenId",
          "type": "uint256"
        },
        {
          "internalType": "bytes",
          "name": "data",
          "type": "bytes"
        }
      ],
      "name": "safeTransferFrom",
      "outputs": [],
      "stateMutability": "nonpayable",
      "type": "function"
    },
    {
      "inputs": [
        {
          "internalType": "address",
          "name": "operator",
          "type": "address"
        },
        {
          "internalType": "bool",
          "name": "approved",
          "type": "bool"
        }
      ],
      "name": "setApprovalForAll",
      "outputs": [],
      "stateMutability": "nonpayable",
      "type": "function"
    },
    {
      "inputs": [
        {
          "internalType": "bytes4",
          "name": "interfaceId",
          "type": "bytes4"
        }
      ],
      "name": "supportsInterface",
      "outputs": [
        {
          "internalType": "bool",
          "name": "",
          "type": "bool"
        }
      ],
      "stateMutability": "view",
      "type": "function"
    },
    {
      "inputs": [],
      "name": "symbol",
      "outputs": [
        {
          "internalType": "string",
          "name": "",
          "type": "string"
        }
      ],
      "stateMutability": "view",
      "type": "function"
    },
    {
      "inputs": [
        {
          "internalType": "uint256",
          "name": "tokenId",
          "type": "uint256"
        }
      ],
      "name": "tokenURI",
      "outputs": [
        {
          "internalType": "string",
          "name": "",
          "type": "string"
        }
      ],
      "stateMutability": "view",
      "type": "function"
    },
    {
      "inputs": [
        {
          "internalType": "address",
          "name": "from",
          "type": "address"
        },
        {
          "internalType": "address",
          "name": "to",
          "type": "address"
        },
        {
          "internalType": "uint256",
          "name": "tokenId",
          "type": "uint256"
        }
      ],
      "name": "transferFrom",
      "outputs": [],
      "stateMutability": "nonpayable",
      "type": "function"
    }
  ],
  "transactionHash": "0xd4f9a11669b16bc7e315cf3fdcd95442fa775be512ca093d5574a5b625997cc6",
  "args": [],
  "numDeployments": 1,
  "solcInputHash": "b5efa758006161458f9c796f85ddfd44",
  "bytecode": "0x608060405234801561000f575f5ffd5b506040518060400160405280600c81526020016b436865636b496e426164676560a01b8152506040518060400160405280600381526020016221a42160e91b815250815f908161005f91906101c6565b50600161006c82826101c6565b5061007b91505f905033610081565b50610280565b5f8281526006602090815260408083206001600160a01b038516845290915281205460ff16610125575f8381526006602090815260408083206001600160a01b03861684529091529020805460ff191660011790556100dd3390565b6001600160a01b0316826001600160a01b0316847f2f8788117e7eff1d82e926ec794901d17c78024a50270940304540a733656f0d60405160405180910390a4506001610128565b505f5b92915050565b634e487b7160e01b5f52604160045260245ffd5b600181811c9082168061015657607f821691505b60208210810361017457634e487b7160e01b5f52602260045260245ffd5b50919050565b601f8211156101c157805f5260205f20601f840160051c8101602085101561019f5750805b601f840160051c820191505b818110156101be575f81556001016101ab565b50505b505050565b81516001600160401b038111156101df576101df61012e565b6101f3816101ed8454610142565b8461017a565b6020601f821160018114610225575f831561020e5750848201515b5f19600385901b1c1916600184901b1784556101be565b5f84815260208120601f198516915b828110156102545787850151825560209485019460019092019101610234565b508482101561027157868401515f19600387901b60f8161c191681555b50505050600190811b01905550565b6113b68061028d5f395ff3fe608060405234801561000f575f5ffd5b506004361061016e575f3560e01c806370a08231116100d2578063a22cb46511610088578063d539139311610063578063d539139314610324578063d547741f1461034b578063e985e9c51461035e575f5ffd5b8063a22cb465146102eb578063b88d4fde146102fe578063c87b56dd14610311575f5ffd5b806391d14854116100b857806391d14854146102a457806395d89b41146102dc578063a217fddf146102e4575f5ffd5b806370a082311461027e578063755edd1714610291575f5ffd5b8063248a9ca31161012757806336568abe1161010d57806336568abe1461024557806342842e0e146102585780636352211e1461026b575f5ffd5b8063248a9ca3146102025780632f2ff15d14610232575f5ffd5b8063081812fc11610157578063081812fc146101af578063095ea7b3146101da57806323b872dd146101ef575f5ffd5b806301ffc9a71461017257806306fdde031461019a575b5f5ffd5b610185610180366004611020565b610399565b60405190151581526020015b60405180910390f35b6101a26103a9565b6040516101919190611069565b6101c26101bd36600461107b565b610438565b6040516001600160a01b039091168152602001610191565b6101ed6101e83660046110ad565b61045f565b005b6101ed6101fd3660046110d5565b61046e565b61022461021036600461107b565b5f9081526006602052604090206001015490565b604051908152602001610191565b6101ed61024036600461110f565b6104fc565b6101ed61025336600461110f565b610520565b6101ed6102663660046110d5565b610558565b6101c261027936600461107b565b610572565b61022461028c366004611139565b61057c565b61022461029f366004611139565b6105c1565b6101856102b236600461110f565b5f9182526006602090815260408084206001600160a01b0393909316845291905290205460ff1690565b6101a2610611565b6102245f81565b6101ed6102f9366004611152565b610620565b6101ed61030c36600461119f565b61062b565b6101a261031f36600461107b565b610643565b6102247f9f2df0fed2c77648de5860a4cc508cd0818c85b8b8a1ab4ceeef8d981c8956a681565b6101ed61035936600461110f565b6106b4565b61018561036c36600461127c565b6001600160a01b039182165f90815260056020908152604080832093909416825291909152205460ff1690565b5f6103a3826106d8565b92915050565b60605f80546103b7906112a4565b80601f01602080910402602001604051908101604052809291908181526020018280546103e3906112a4565b801561042e5780601f106104055761010080835404028352916020019161042e565b820191905f5260205f20905b81548152906001019060200180831161041157829003601f168201915b5050505050905090565b5f610442826106fc565b505f828152600460205260409020546001600160a01b03166103a3565b61046a828233610734565b5050565b6001600160a01b03821661049c57604051633250574960e11b81525f60048201526024015b60405180910390fd5b5f6104a8838333610741565b9050836001600160a01b0316816001600160a01b0316146104f6576040516364283d7b60e01b81526001600160a01b0380861660048301526024820184905282166044820152606401610493565b50505050565b5f8281526006602052604090206001015461051681610840565b6104f6838361084d565b6001600160a01b03811633146105495760405163334bd91960e11b815260040160405180910390fd5b61055382826108f8565b505050565b61055383838360405180602001604052805f81525061062b565b5f6103a3826106fc565b5f6001600160a01b0382166105a6576040516322718ad960e21b81525f6004820152602401610493565b506001600160a01b03165f9081526003602052604090205490565b5f7f9f2df0fed2c77648de5860a4cc508cd0818c85b8b8a1ab4ceeef8d981c8956a66105ec81610840565b60075f81546105fa906112d6565b9182905550915061060b838361097d565b50919050565b6060600180546103b7906112a4565b61046a338383610996565b61063684848461046e565b6104f63385858585610a34565b606061064e826106fc565b505f61066460408051602081019091525f815290565b90505f8151116106825760405180602001604052805f8152506106ad565b8061068c84610b5c565b60405160200161069d929190611311565b6040516020818303038152906040525b9392505050565b5f828152600660205260409020600101546106ce81610840565b6104f683836108f8565b5f6001600160e01b03198216637965db0b60e01b14806103a357506103a382610bf9565b5f818152600260205260408120546001600160a01b0316806103a357604051637e27328960e01b815260048101849052602401610493565b6105538383836001610c48565b5f828152600260205260408120546001600160a01b039081169083161561076d5761076d818486610d77565b6001600160a01b038116156107a7576107885f855f5f610c48565b6001600160a01b0381165f90815260036020526040902080545f190190555b6001600160a01b038516156107d5576001600160a01b0385165f908152600360205260409020805460010190555b5f84815260026020526040808220805473ffffffffffffffffffffffffffffffffffffffff19166001600160a01b0389811691821790925591518793918516917fddf252ad1be2c89b69c2b068fc378daa952ba7f163c4a11628f55a4df523b3ef91a4949350505050565b61084a8133610ddb565b50565b5f8281526006602090815260408083206001600160a01b038516845290915281205460ff166108f1575f8381526006602090815260408083206001600160a01b03861684529091529020805460ff191660011790556108a93390565b6001600160a01b0316826001600160a01b0316847f2f8788117e7eff1d82e926ec794901d17c78024a50270940304540a733656f0d60405160405180910390a45060016103a3565b505f6103a3565b5f8281526006602090815260408083206001600160a01b038516845290915281205460ff16156108f1575f8381526006602090815260408083206001600160a01b0386168085529252808320805460ff1916905551339286917ff6391f5c32d9c69d2a47ea670b442974b53935d1edc7fd64eb21e047a839171b9190a45060016103a3565b61046a828260405180602001604052805f815250610e2f565b6001600160a01b0382166109c857604051630b61174360e31b81526001600160a01b0383166004820152602401610493565b6001600160a01b038381165f81815260056020908152604080832094871680845294825291829020805460ff191686151590811790915591519182527f17307eab39ab6107e8899845ad3d59bd9653f200f220920489ca2b5937696c31910160405180910390a3505050565b6001600160a01b0383163b15610b5557604051630a85bd0160e11b81526001600160a01b0384169063150b7a0290610a76908890889087908790600401611325565b6020604051808303815f875af1925050508015610ab0575060408051601f3d908101601f19168201909252610aad91810190611365565b60015b610b17573d808015610add576040519150601f19603f3d011682016040523d82523d5f602084013e610ae2565b606091505b5080515f03610b0f57604051633250574960e11b81526001600160a01b0385166004820152602401610493565b805160208201fd5b6001600160e01b03198116630a85bd0160e11b14610b5357604051633250574960e11b81526001600160a01b0385166004820152602401610493565b505b5050505050565b60605f610b6883610e46565b60010190505f8167ffffffffffffffff811115610b8757610b8761118b565b6040519080825280601f01601f191660200182016040528015610bb1576020820181803683370190505b5090508181016020015b5f19017f3031323334353637383961626364656600000000000000000000000000000000600a86061a8153600a8504945084610bbb57509392505050565b5f6001600160e01b031982166380ac58cd60e01b1480610c2957506001600160e01b03198216635b5e139f60e01b145b806103a357506301ffc9a760e01b6001600160e01b03198316146103a3565b8080610c5c57506001600160a01b03821615155b15610d3b575f610c6b846106fc565b90506001600160a01b03831615801590610c975750826001600160a01b0316816001600160a01b031614155b8015610cc857506001600160a01b038082165f9081526005602090815260408083209387168352929052205460ff16155b15610cf15760405163a9fbf51f60e01b81526001600160a01b0384166004820152602401610493565b8115610d395783856001600160a01b0316826001600160a01b03167f8c5be1e5ebec7d5bd14f71427d1e84f3dd0314c0f7b2291e5b200ac8c7c3b92560405160405180910390a45b505b50505f908152600460205260409020805473ffffffffffffffffffffffffffffffffffffffff19166001600160a01b0392909216919091179055565b610d82838383610f27565b610553576001600160a01b038316610db057604051637e27328960e01b815260048101829052602401610493565b60405163177e802f60e01b81526001600160a01b038316600482015260248101829052604401610493565b5f8281526006602090815260408083206001600160a01b038516845290915290205460ff1661046a5760405163e2517d3f60e01b81526001600160a01b038216600482015260248101839052604401610493565b610e398383610faa565b610553335f858585610a34565b5f807a184f03e93ff9f4daa797ed6e38ed64bf6a1f0100000000000000008310610e8e577a184f03e93ff9f4daa797ed6e38ed64bf6a1f010000000000000000830492506040015b6d04ee2d6d415b85acef81000000008310610eba576d04ee2d6d415b85acef8100000000830492506020015b662386f26fc100008310610ed857662386f26fc10000830492506010015b6305f5e1008310610ef0576305f5e100830492506008015b6127108310610f0457612710830492506004015b60648310610f16576064830492506002015b600a83106103a35760010192915050565b5f6001600160a01b03831615801590610fa25750826001600160a01b0316846001600160a01b03161480610f7f57506001600160a01b038085165f9081526005602090815260408083209387168352929052205460ff165b80610fa257505f828152600460205260409020546001600160a01b038481169116145b949350505050565b6001600160a01b038216610fd357604051633250574960e11b81525f6004820152602401610493565b5f610fdf83835f610741565b90506001600160a01b03811615610553576040516339e3563760e11b81525f6004820152602401610493565b6001600160e01b03198116811461084a575f5ffd5b5f60208284031215611030575f5ffd5b81356106ad8161100b565b5f81518084528060208401602086015e5f602082860101526020601f19601f83011685010191505092915050565b602081525f6106ad602083018461103b565b5f6020828403121561108b575f5ffd5b5035919050565b80356001600160a01b03811681146110a8575f5ffd5b919050565b5f5f604083850312156110be575f5ffd5b6110c783611092565b946020939093013593505050565b5f5f5f606084860312156110e7575f5ffd5b6110f084611092565b92506110fe60208501611092565b929592945050506040919091013590565b5f5f60408385031215611120575f5ffd5b8235915061113060208401611092565b90509250929050565b5f60208284031215611149575f5ffd5b6106ad82611092565b5f5f60408385031215611163575f5ffd5b61116c83611092565b915060208301358015158114611180575f5ffd5b809150509250929050565b634e487b7160e01b5f52604160045260245ffd5b5f5f5f5f608085870312156111b2575f5ffd5b6111bb85611092565b93506111c960208601611092565b925060408501359150606085013567ffffffffffffffff8111156111eb575f5ffd5b8501601f810187136111fb575f5ffd5b803567ffffffffffffffff8111156112155761121561118b565b604051601f8201601f19908116603f0116810167ffffffffffffffff811182821017156112445761124461118b565b60405281815282820160200189101561125b575f5ffd5b816020840160208301375f6020838301015280935050505092959194509250565b5f5f6040838503121561128d575f5ffd5b61129683611092565b915061113060208401611092565b600181811c908216806112b857607f821691505b60208210810361060b57634e487b7160e01b5f52602260045260245ffd5b5f600182016112f357634e487b7160e01b5f52601160045260245ffd5b5060010190565b5f81518060208401855e5f93019283525090919050565b5f610fa261131f83866112fa565b846112fa565b6001600160a01b03851681526001600160a01b0384166020820152826040820152608060608201525f61135b608083018461103b565b9695505050505050565b5f60208284031215611375575f5ffd5b81516106ad8161100b56fea2646970667358221220c7adf6927ad65825cd97709de4deba6bc6d93c75e116853b07fe981ca18da6d164736f6c634300081b0033",
  "devdoc": {
    "errors": {
      "AccessControlBadConfirmation()": [
        {
          "details": "The caller of a function is not the expected one. NOTE: Don't confuse with {AccessControlUnauthorizedAccount}."
        }
      ],
      "AccessControlUnauthorizedAccount(address,bytes32)": [
        {
          "details": "The `account` is missing a role."
        }
      ],
      "ERC721IncorrectOwner(address,uint256,address)": [
        {
          "details": "Indicates an error related to the ownership over a particular token. Used in transfers.",
          "params": {
            "owner": "Address of the current owner of a token.",
            "sender": "Address whose tokens are being transferred.",
            "tokenId": "Identifier number of a token."
          }
        }
      ],
      "ERC721InsufficientApproval(address,uint256)": [
        {
          "details": "Indicates a failure with the `operator`s approval. Used in transfers.",
          "params": {
            "operator": "Address that may be allowed to operate on tokens without being their owner.",
            "tokenId": "Identifier number of a token."
          }
        }
      ],
      "ERC721InvalidApprover(address)": [
        {
          "details": "Indicates a failure with the `approver` of a token to be approved. Used in approvals.",
          "params": {
            "approver": "Address initiating an approval operation."
          }
        }
      ],
      "ERC721InvalidOperator(address)": [
        {
          "details": "Indicates a failure with the `operator` to be approved. Used in approvals.",
          "params": {
            "operator": "Address that may be allowed to operate on tokens without being their owner."
          }
        }
      ],
      "ERC721InvalidOwner(address)": [
        {
          "details": "Indicates that an address can't be an owner. For example, `address(0)` is a forbidden owner in ERC-20. Used in balance queries.",
          "params": {
            "owner": "Address of the current owner of a token."
          }
        }
      ],
      "ERC721InvalidReceiver(address)": [
        {
          "details": "Indicates a failure with the token `receiver`. Used in transfers.",
          "params": {
            "receiver": "Address to which tokens are being transferred."
          }
        }
      ],
      "ERC721InvalidSender(address)": [
        {
          "details": "Indicates a failure with the token `sender`. Used in transfers.",
          "params": {
            "sender": "Address whose tokens are being transferred."
          }
        }
      ],
      "ERC721NonexistentToken(uint256)": [
        {
          "details": "Indicates a `tokenId` whose `owner` is the zero address.",
          "params": {
            "tokenId": "Identifier number of a token."
          }
        }
      ]
    },
    "events": {
      "Approval(address,address,uint256)": {
        "details": "Emitted when `owner` enables `approved` to manage the `tokenId` token."
      },
      "ApprovalForAll(address,address,bool)": {
        "details": "Emitted when `owner` enables or disables (`approved`) `operator` to manage all of its assets."
      },
      "RoleAdminChanged(bytes32,bytes32,bytes32)": {
        "details": "Emitted when `newAdminRole` is set as ``role``'s admin role, replacing `previousAdminRole` `DEFAULT_ADMIN_ROLE` is the starting admin for all roles, despite {RoleAdminChanged} not being emitted to signal this."
      },
      "RoleGranted(bytes32,address,address)": {
        "details": "Emitted when `account` is granted `role`. `sender` is the account that originated the contract call. This account bears the admin role (for the granted role). Expected in cases where the role was granted using the internal {AccessControl-_grantRole}."
      },
      "RoleRevoked(bytes32,address,address)": {
        "details": "Emitted when `account` is revoked `role`. `sender` is the account that originated the contract call:   - if using `revokeRole`, it is the admin role bearer   - if using `renounceRole`, it is the role bearer (i.e. `account`)"
      },
      "Transfer(address,address,uint256)": {
        "details": "Emitted when `tokenId` token is transferred from `from` to `to`."
      }
    },
    "kind": "dev",
    "methods": {
      "approve(address,uint256)": {
        "details": "Gives permission to `to` to transfer `tokenId` token to another account. The approval is cleared when the token is transferred. Only a single account can be approved at a time, so approving the zero address clears previous approvals. Requirements: - The caller must own the token or be an approved operator. - `tokenId` must exist. Emits an {Approval} event."
      },
      "balanceOf(address)": {
        "details": "Returns the number of tokens in ``owner``'s account."
      },
      "getApproved(uint256)": {
        "details": "Returns the account approved for `tokenId` token. Requirements: - `tokenId` must exist."
      },
      "getRoleAdmin(bytes32)": {
        "details": "Returns the admin role that controls `role`. See {grantRole} and {revokeRole}. To change a role's admin, use {_setRoleAdmin}."
      },
      "grantRole(bytes32,address)": {
        "details": "Grants `role` to `account`. If `account` had not been already granted `role`, emits a {RoleGranted} event. Requirements: - the caller must have ``role``'s admin role. May emit a {RoleGranted} event."
      },
      "hasRole(bytes32,address)": {
        "details": "Returns `true` if `account` has been granted `role`."
      },
      "isApprovedForAll(address,address)": {
        "details": "Returns if the `operator` is allowed to manage all of the assets of `owner`. See {setApprovalForAll}"
      },
      "name()": {
        "details": "Returns the token collection name."
      },
      "ownerOf(uint256)": {
        "details": "Returns the owner of the `tokenId` token. Requirements: - `tokenId` must exist."
      },
      "renounceRole(bytes32,address)": {
        "details": "Revokes `role` from the calling account. Roles are often managed via {grantRole} and {revokeRole}: this function's purpose is to provide a mechanism for accounts to lose their privileges if they are compromised (such as when a trusted device is misplaced). If the calling account had been revoked `role`, emits a {RoleRevoked} event. Requirements: - the caller must be `callerConfirmation`. May emit a {RoleRevoked} event."
      },
      "revokeRole(bytes32,address)": {
        "details": "Revokes `role` from `account`. If `account` had been granted `role`, emits a {RoleRevoked} event. Requirements: - the caller must have ``role``'s admin role. May emit a {RoleRevoked} event."
      },
      "safeTransferFrom(address,address,uint256)": {
        "details": "Safely transfers `tokenId` token from `from` to `to`, checking first that contract recipients are aware of the ERC-721 protocol to prevent tokens from being forever locked. Requirements: - `from` cannot be the zero address. - `to` cannot be the zero address. - `tokenId` token must exist and be owned by `from`. - If the caller is not `from`, it must have been allowed to move this token by either {approve} or   {setApprovalForAll}. - If `to` refers to a smart contract, it must implement {IERC721Receiver-onERC721Received}, which is called upon   a safe transfer. Emits a {Transfer} event."
      },
      "safeTransferFrom(address,address,uint256,bytes)": {
        "details": "Safely transfers `tokenId` token from `from` to `to`. Requirements: - `from` cannot be the zero address. - `to` cannot be the zero address. - `tokenId` token must exist and be owned by `from`. - If the caller is not `from`, it must be approved to move this token by either {approve} or {setApprovalForAll}. - If `to` refers to a smart contract, it must implement {IERC721Receiver-onERC721Received}, which is called upon   a safe transfer. Emits a {Transfer} event."
      },
      "setApprovalForAll(address,bool)": {
        "details": "Approve or remove `operator` as an operator for the caller. Operators can call {transferFrom} or {safeTransferFrom} for any token owned by the caller. Requirements: - The `operator` cannot be the address zero. Emits an {ApprovalForAll} event."
      },
      "symbol()": {
        "details": "Returns the token collection symbol."
      },
      "tokenURI(uint256)": {
        "details": "Returns the Uniform Resource Identifier (URI) for `tokenId` token."
      },
      "transferFrom(address,address,uint256)": {
        "details": "Transfers `tokenId` token from `from` to `to`. WARNING: Note that the caller is responsible to confirm that the recipient is capable of receiving ERC-721 or else they may be permanently lost. Usage of {safeTransferFrom} prevents loss, though the caller must understand this adds an external call which potentially creates a reentrancy vulnerability. Requirements: - `from` cannot be the zero address. - `to` cannot be the zero address. - `tokenId` token must be owned by `from`. - If the caller is not `from`, it must be approved to move this token by either {approve} or {setApprovalForAll}. Emits a {Transfer} event."
      }
    },
    "title": "CheckInBadge (ERC721)",
    "version": 1
  },
  "userdoc": {
    "kind": "user",
    "methods": {},
    "notice": "",
    "version": 1
  },
  "storageLayout": {
    "storage": [
      {
        "astId": 40383,
        "contract": "contracts/CheckInBadge.sol:CheckInBadge",
        "label": "_name",
        "offset": 0,
        "slot": "0",
        "type": "t_string_storage"
      },
      {
        "astId": 40385,
        "contract": "contracts/CheckInBadge.sol:CheckInBadge",
        "label": "_symbol",
        "offset": 0,
        "slot": "1",
        "type": "t_string_storage"
      },
      {
        "astId": 40389,
        "contract": "contracts/CheckInBadge.sol:CheckInBadge",
        "label": "_owners",
        "offset": 0,
        "slot": "2",
        "type": "t_mapping(t_uint256,t_address)"
      },
      {
        "astId": 40393,
        "contract": "contracts/CheckInBadge.sol:CheckInBadge",
        "label": "_balances",
        "offset": 0,
        "slot": "3",
        "type": "t_mapping(t_address,t_uint256)"
      },
      {
        "astId": 40397,
        "contract": "contracts/CheckInBadge.sol:CheckInBadge",
        "label": "_tokenApprovals",
        "offset": 0,
        "slot": "4",
        "type": "t_mapping(t_uint256,t_address)"
      },
      {
        "astId": 40403,
        "contract": "contracts/CheckInBadge.sol:CheckInBadge",
        "label": "_operatorApprovals",
        "offset": 0,
        "slot": "5",
        "type": "t_mapping(t_address,t_mapping(t_address,t_bool))"
      },
      {
        "astId": 39048,
        "contract": "contracts/CheckInBadge.sol:CheckInBadge",
        "label": "_roles",
        "offset": 0,
        "slot": "6",
        "type": "t_mapping(t_bytes32,t_struct(RoleData)39043_storage)"
      },
      {
        "astId": 46620,
        "contract": "contracts/CheckInBadge.sol:CheckInBadge",
        "label": "_nextTokenId",
        "offset": 0,
        "slot": "7",
        "type": "t_uint256"
      }
    ],
    "types": {
      "t_address": {
        "encoding": "inplace",
        "label": "address",
        "numberOfBytes": "20"
      },
      "t_bool": {
        "encoding": "inplace",
        "label": "bool",
        "numberOfBytes": "1"
      },
      "t_bytes32": {
        "encoding": "inplace",
        "label": "bytes32",
        "numberOfBytes": "32"
      },
      "t_mapping(t_address,t_bool)": {
        "encoding": "mapping",
        "key": "t_address",
        "label": "mapping(address => bool)",
        "numberOfBytes": "32",
        "value": "t_bool"
      },
      "t_mapping(t_address,t_mapping(t_address,t_bool))": {
        "encoding": "mapping",
        "key": "t_address",
        "label": "mapping(address => mapping(address => bool))",
        "numberOfBytes": "32",
        "value": "t_mapping(t_address,t_bool)"
      },
      "t_mapping(t_address,t_uint256)": {
        "encoding": "mapping",
        "key": "t_address",
        "label": "mapping(address => uint256)",
        "numberOfBytes": "32",
        "value": "t_uint256"
      },
      "t_mapping(t_bytes32,t_struct(RoleData)39043_storage)": {
        "encoding": "mapping",
        "key": "t_bytes32",
        "label": "mapping(bytes32 => struct AccessControl.RoleData)",
        "numberOfBytes": "32",
        "value": "t_struct(RoleData)39043_storage"
      },
      "t_mapping(t_uint256,t_address)": {
        "encoding": "mapping",
        "key": "t_uint256",
        "label": "mapping(uint256 => address)",
        "numberOfBytes": "32",
        "value": "t_address"
      },
      "t_string_storage": {
        "encoding": "bytes",
        "label": "string",
        "numberOfBytes": "32"
      },
      "t_struct(RoleData)39043_storage": {
        "encoding": "inplace",
        "label": "struct AccessControl.RoleData",
        "members": [
          {
            "astId": 39040,
            "contract": "contracts/CheckInBadge.sol:CheckInBadge",
            "label": "hasRole",
            "offset": 0,
            "slot": "0",
            "type": "t_mapping(t_address,t_bool)"
          },
          {
            "astId": 39042,
            "contract": "contracts/CheckInBadge.sol:CheckInBadge",
            "label": "adminRole",
            "offset": 0,
            "slot": "1",
            "type": "t_bytes32"
          }
        ],
        "numberOfBytes": "64"
      },
      "t_uint256": {
        "encoding": "inplace",
        "label": "uint256",
        "numberOfBytes": "32"
      }
    }
  }
}